:1000000032C075C149C048C047C046C045C044C0A1
:1000100043C042C041C040C03FC03EC03DC03CC0E4
:100020003BC03AC039C00403090408035400480027
:10003000530010035500530042002D004C004300B4
:10004000440012011001FF000008A02085410001BA
:1000500001020001090212000101008014090400DC
:1000600000000000000011241FBECFEDCDBF10E046
:10007000A0E6B0E0EAEDF7E002C005900D92A038EE
:10008000B107D9F710E0A0E8B0E001C01D92AC3A8A
:10009000B107E1F772D39FC3B3CF1F93CF93DF9321
:1000A00060919100635067FDA4C080918E00CCE008
:1000B000D0E0C81BD109CB56DF4F80918D008D3227
:1000C00009F085C0683009F092C083EC809381000C
:1000D0008AE580936000109280008881807631F0FC
:1000E000CE01FFD28F3F09F461C067C09A811092A0
:1000F0008A008981882331F410928B002AE830E04D
:1001000082E04FC0853019F49093920040C0863051
:10011000A9F58B81813019F482E490E004C082302B
:1001200041F484E590E09093900080938F0082E109
:1001300021C08330F1F4992341F486E290E090935A
:10014000900080938F0084E015C0913041F48AE2E2
:1001500090E09093900080938F0088E00BC09230E5
:1001600041F482E390E09093900080938F0080E1CF
:1001700001C080E090E4909380001FC0883059F067
:10018000893019F49093940002C08A3039F02AE83B
:1001900030E080E006C024E930E002C02AE830E028
:1001A00081E03093900020938F0007C0988197FDE5
:1001B0008E8190E89093800007C09F81992321F45D
:1001C0009E81981708F4892F8093610010C0809158
:1001D000800087FF0CC0CE01A8D28F3F21F48EE1B2
:1001E0008093600004C0882311F010926100109287
:1001F00091008091600084FF4CC0809161008F3F2E
:1002000009F447C0182F893008F018E0811B80934B
:1002100061008091810098E88927809381001123F3
:1002200061F180918F009091900030918000212F9A
:10023000215036FF0EC030E0A9014D575F4FFC0141
:10024000A2E8B0E064916D933196A417B507D1F799
:100250000CC0DC0130E0A9014D575F4FE2E8F0E04F
:100260006D916193E417F507D9F72F5F3F4F280F82
:10027000391F3093900020938F0082E890E0612F27
:1002800032D01C5F1C3019F08FEF80936100109307
:10029000600084E190B3947131F48150D9F71092E9
:1002A000920010928C00DF91CF911F91089585B735
:1002B000826085BF8BB780648BBF0895A82FB92F4C
:1002C00080E090E041E050EA609530E009C02D9177
:1002D00082279795879510F084279527305EC8F37D
:1002E0006F5FA8F30895EADF8D939D930895CF93F0
:1002F000CFB7CF93C395849BE9F7849B09C0849BB8
:1003000007C0849B05C0849B03C0849B01C0A1C01F
:10031000DF93C0918E00DD27CB56DF4F849B02C058
:10032000DF91EBCF2F930F931F9300B32FEF04FBBD
:1003300020F94F933F9310B34FEF012704FB21F9AE
:100340003BE031C04E7F012F10B3216028C0102F39
:100350004D7F2260000000B329C04B7F2460012F35
:10036000000010B32BC010B3477F28602AC04F7E17
:1003700000B320612CC04F7D10B320622FC04F7B93
:1003800000B3206432C0422700B349934FEF00000E
:10039000102714FB20F910B31471C9F1297F91F2D1
:1003A000012704FB21F900B3237F89F2315058F172
:1003B000102714FB22F910B3277E79F2012704FBE2
:1003C00023F92F7C81F200B3102714FB24F92F7935
:1003D00071F200C010B3012704FB25F92F7359F205
:1003E00000C000B3102714FB26F9223040F200C0F1
:1003F00010B3012704FB27F9243028F64F77206833
:1004000010B30000F9CF10E41ABF002717C03B500B
:100410003195C31BD04010E41ABF0881033CE9F0BA
:100420000B34D9F020918C001981110F1213EDCFEC
:10043000093641F10D3211F0013E39F70093930076
:100440003F914F911F910F912F91DF91CAB7C6FD38
:1004500051CFCF91CFBFCF911895209193002223F8
:1004600079F310919100112311F5343012F130938A
:10047000910020938D0010918E003BE0311B309352
:100480008E0017C00091910001308CF40AE5309184
:10049000600034FD10C000936000C1E8D0E00FC0E0
:1004A0002795A8F45150A9F4220F0000F9CF4AE58E
:1004B00003C042ED01C0432FC4E1D0E032E011B3EC
:1004C0001461949A11BB02B320E414E15F930127F5
:1004D00056E002BB279520F4515021F4220FF9CFAA
:1004E000012756E000003B5A02BBD0F2279528F4C2
:1004F000515029F4220F0000F9CF012756E027952B
:1005000002BB20F4515021F4220FF9CF012756E00D
:100510002991332302BB21F60B7E10919200110F1B
:10052000C651D04002BB11F010938C0010E41ABFEA
:10053000006111B31B7E402F4B7E5F9100C000C055
:1005400002BB11BB42BB7CCF009711F400C00895E1
:100550000197F1F70895C29A00C0C29808951F93B9
:10056000662311F0C09A01C0C098C198BB9ABC9A8A
:10057000BD9ABE9AC698C598C498C39887FDC69A76
:10058000182F86FDC59A15FDC49A14FDC39AE3DFA2
:10059000C698C598C498C39813FDC69A12FDC59A0B
:1005A00011FDC49A10FDC39AD6DFC39AC49AC59AA6
:1005B000C69A1F910895C098C19ABB98BC98BD98DF
:1005C000BE98C29A00C0B39902C080E001C080E129
:1005D000B4998062B5998064B6998068C29800C069
:1005E000C29A00C0B3998160B4998260B599846061
:1005F000B6998860C2980895DEDF87FDFDCF8EE151
:1006000090E0A2DFD8DF08951F93182FF5DF812F28
:1006100060E0A5DF1F910895662311F4805801C0A2
:100620008054F2DF0895E8DF90E0089581E0ECDF88
:10063000089582E0E9DF08951F93182FDDDF1A3057
:1006400041F4803410F480E401C080E08058DCDFA5
:1006500004C0812F61E083DFCFDF1F910895CF9326
:10066000DF93EC0101C0E8DF89918823E1F7DF9196
:10067000CF910895CF93DF93EC0101C0DDDFFE0140
:10068000219684918823D1F7DF91CF9108951F930C
:10069000182FB89AB99ABA9ABB9ABC9ABD9ABE9AC0
:1006A00080E89BEB51DFC49AC39A55DF80E89AE358
:1006B0004BDF51DF80EC90E047DF4DDF80EC90E0D6
:1006C00043DFC39848DF80EC90E03EDF88E29CDFA8
:1006D00088E09ADFABDF86E097DF812F95DF1F91FF
:1006E0000895EF92FF92CF93DF93E82EE7017E010A
:1006F000F92EE7018981813051F498DF8E81809352
:10070000AB00813250F080E28093AB0006C08230B3
:1007100031F48CDF1092AB0002C08FEF01C080E09B
:10072000DF91CF91FF90EF900895EF92FF920F939A
:100730001F93CF93DF93182F8091AB00062F86175E
:1007400008F4082F801B8093AB00E12EE7017E01A7
:10075000F92EE70102C089916FDFAE01411B4017FE
:10076000D0F381E09091AB00911180E0DF91CF91C7
:100770001F910F91FF90EF9008952EE088E190E097
:100780000FB6F894A89581BD0FBE21BD8CE07FDF28
:100790004DDF82E690E063DF80E061E03DDF8AE6E6
:1007A00090E05DDF84DD8B9893988FEB97E2A9E072
:1007B00081509040A040E1F700C00000A8958B9ABE
:1007C000939A80E061E028DF85E790E048DF789445
:0A07D000A89563DCFDCFF894FFCF7D
:1007DA005AFF555342204C434400436F6E6E656383
:1007EA0074696E67005265616479202020202000B8
:00000001FF
