:1000000032C071C149C048C047C046C045C044C0A5
:1000100043C042C041C040C03FC03EC03DC03CC0E4
:100020003BC03AC039C00403090408035400480027
:10003000530010035500530042002D004C004300B4
:10004000440012011001FF000008A02085410001BA
:1000500001020001090212000101008014090400DC
:1000600000000000000011241FBECFEDCDBF10E046
:10007000A0E6B0E0E6EDF7E002C005900D92A038F2
:10008000B107D9F710E0A0E8B0E001C01D92AC3A8A
:10009000B107E1F74ED39DC3B3CF85B7826085BF6B
:1000A0008BB780648BBF08951F93CF93DF936091CC
:1000B0009100635067FDA3C080918E00CCE0D0E03A
:1000C000C81BD109CB56DF4F80918D008D3209F0CE
:1000D00084C0683009F091C083EC809381008AE588
:1000E00080936000109280008881807639F0CE0184
:1000F00006D3282F8F3F09F45FC065C09A81109204
:100100008A008981882321F410928B0022E04DC05F
:10011000853019F49093920047C08630B1F58B81F9
:10012000813019F482E490E004C0823041F484E527
:1001300090E09093900080938F0022E122C0833062
:10014000F9F48A81882341F486E290E0909390004C
:1001500080938F0024E015C0813041F48AE290E062
:100160009093900080938F0028E00BC0823041F480
:1001700082E390E09093900080938F0020E101C093
:1001800020E080E4809380001EC0883021F421E0CC
:1001900084E990E00CC0893019F49093940004C075
:1001A0008A3011F421E001C020E08AE890E09093C9
:1001B000900080938F0007C0888187FD2E8180E8A2
:1001C0008093800006C08F81882319F48E81821766
:1001D00008F0822F8093610010C08091800087FF1B
:1001E0000CC0CE01D4D28F3F21F48EE18093600009
:1001F00004C0882311F01092610010929100809148
:10020000600084FF49C0809161008F3F09F444C0C1
:10021000182F893008F018E0811B809361008091CD
:10022000810098E8892780938100112341F1209172
:100230008F00309190008091800086FF0DC0A2E871
:10024000B0E080E090E0F901E80FF91FE491ED9350
:1002500001961817C1F708C0912FD901E2E8F0E024
:100260008D9181939150E1F71150812F90E01F5FA4
:100270000196820F931F9093900080938F0082E8E5
:1002800090E0612F2CD0612F6C5F6C3019F08FEFF4
:10029000809361006093600094E180B3847131F4D5
:1002A0009150D9F71092920010928C00DF91CF916B
:1002B0001F910895A82FB92F80E090E041E050EA07
:1002C000609530E009C02D9182279795879510F0B1
:1002D00084279527305EC8F36F5FA8F30895EADF9F
:1002E0008D939D930895CF93CFB7CF93C395849B60
:1002F000E9F7849B09C0849B07C0849B05C0849B4D
:1003000003C0849B01C0A1C0DF93C0918E00DD2794
:10031000CB56DF4F849B02C0DF91EBCF2F930F931F
:100320001F9300B32FEF04FB20F94F933F9310B3BB
:100330004FEF012704FB21F93BE031C04E7F012F35
:1003400010B3216028C0102F4D7F2260000000B341
:1003500029C04B7F2460012F000010B32BC010B3C5
:10036000477F28602AC04F7E00B320612CC04F7D9C
:1003700010B320622FC04F7B00B3206432C04227ED
:1003800000B349934FEF0000102714FB20F910B37E
:100390001471C9F1297F91F2012704FB21F900B3FF
:1003A000237F89F2315058F1102714FB22F910B342
:1003B000277E79F2012704FB23F92F7C81F200B319
:1003C000102714FB24F92F7971F200C010B3012714
:1003D00004FB25F92F7359F200C000B3102714FB5A
:1003E00026F9223040F200C010B3012704FB27F9A0
:1003F000243028F64F77206810B30000F9CF10E4BE
:100400001ABF002717C03B503195C31BD04010E4E2
:100410001ABF0881033CE9F00B34D9F020918C001D
:100420001981110F1213EDCF093641F10D3211F080
:10043000013E39F7009393003F914F911F910F9127
:100440002F91DF91CAB7C6FD51CFCF91CFBFCF91CA
:10045000189520919300222379F310919100112394
:1004600011F5343012F13093910020938D001091EA
:100470008E003BE0311B30938E0017C0009191003D
:1004800001308CF40AE53091600034FD10C0009317
:100490006000C1E8D0E00FC02795A8F45150A9F43E
:1004A000220F0000F9CF4AE503C042ED01C0432FFF
:1004B000C4E1D0E032E011B31461949A11BB02B3ED
:1004C00020E414E15F93012756E002BB279520F456
:1004D000515021F4220FF9CF012756E000003B5A7A
:1004E00002BBD0F2279528F4515029F4220F0000C6
:1004F000F9CF012756E0279502BB20F4515021F493
:10050000220FF9CF012756E02991332302BB21F6B0
:100510000B7E10919200110FC651D04002BB11F01A
:1005200010938C0010E41ABF006111B31B7E402FA2
:100530004B7E5F9100C000C002BB11BB42BB7CCFB1
:10054000662311F0C09A01C0C098C198BB9ABC9AAA
:10055000BD9ABE9AC698C598C498C39887FDC69A96
:1005600086FDC59A85FDC49A84FDC39AC29A00C0CF
:10057000C298C698C598C498C39883FDC69A82FD50
:10058000C59A81FDC49A80FDC39AC29A00C0C298E0
:10059000C39AC49AC59AC69A0895882311F0C09A3E
:1005A00001C0C098C19ABB98BC98BD98BE98C29A29
:1005B00000C0B39B02C080E101C080E0B4998062BA
:1005C000B5998064B6998068C29800C0C29A00C08C
:1005D000B3998160B4998260B5998460B699886056
:1005E000C298089580E0D9DF87FDFCCF8EE190E0CE
:1005F0000197F1F780E0D1DF08951F93182FF2DF04
:10060000812F60E09DDF1F910895662311F48058CB
:1006100001C08054F2DF0895E5DF90E0089581E0A5
:10062000ECDF089582E0E9DF08951F93182FDADFE9
:100630001A3041F4803410F080E001C080E480582A
:10064000DCDF0EC0812F61E07BDFCCDF803111F475
:1006500080EC03C0803519F480E860E071DFC2DF10
:100660001F910895CF93DF93EC0101C0DEDF8991E4
:100670008823E1F7DF91CF910895CF93DF93EC01C9
:1006800001C0D3DFFE01219684918823D1F7DF9149
:10069000CF9108951F93182FB89AB99ABA9ABB9A16
:1006A000BC9ABD9ABE9A80E89BEB0197F1F7C49A79
:1006B000C39AC29A00C0C29880E89AE30197F1F702
:1006C000C29A00C0C29880EC90E0FC013197F1F72B
:1006D000C29A00C0C298FC013197F1F7C398C29A40
:1006E00000C0C2980197F1F788E287DF88E085DFD4
:1006F00096DF86E082DF812F80DF1F910895CF9300
:10070000DF93EC018981813059F489DF8E818093F8
:10071000AB00813218F080E28093AB008FEF06C00F
:10072000823019F47CDF1092AB0080E0DF91CF9132
:1007300008952EE088E190E00FB6F894A89581BD69
:100740000FBE21BD8CE0A6DF6ADF82E690E08ADF83
:1007500080E061E05ADF8AE690E084DF9EDC8B98DF
:10076000939884EC99E02CE231E0F9013197F1F7AC
:100770000197D9F7A8958B9A939A80E061E045DFBD
:1007800085E790E06FDF7894A8958EDCFDCF0F931E
:100790001F93CF93DF939C018091AB00062F8617A8
:1007A00008F4082F801B8093AB00E90110E003C020
:1007B00089913BDF1F5F1017D8F390E08091AB0069
:1007C000882309F491E0892FDF91CF911F910F9138
:0607D0000895F894FFCF2C
:1007D6005AFF555342204C434400436F6E6E656387
:1007E60074696E67005265616479202020202000BC
:00000001FF
